:020000040800F2
:1000000008B8002025DB000825D8000827D80008FC
:1000100029D800082BD800082DD8000800000000BF
:100020000000000000000000000000002FD80008C1
:1000300031D800080000000033D8000835D8000887
:10004000ADDB0008B1DB0008B5DB0008B9DB000858
:10005000BDDB0008C1DB0008C5DB0008C9DB000808
:10006000CDDB0008D1DB0008D5DB0008D9DB0008B8
:10007000DDDB000839D80008E1DB0008E5DB00081B
:10008000E9DB0008EDDB0008F1DB0008F5DB000828
:10009000F9DB0008FDDB000801DC000805DC0008D6
:1000A00009DC00080DDC000811DC000815DC000884
:1000B00019DC00081DDC00083FD8000821DC00081E
:1000C00025DC000829DC00082DDC000831DC0008F4
:1000D00035DC000839DC00083DDC000841DC0008A4
:1000E00045DC000849DC00084DDC000851DC000854
:1000F00055DC000859DC00085DDC000861DC000804
:1001000065DC000869DC00086DDC000871DC0008B3
:1001100075DC000879DC00087DDC000881DC000863
:1001200085DC000889DC00088DDC000891DC000813
:1001300061D8000867D8000895DC000899DC000841
:100140009DDC0008A1DC0008A5DC0008A9DC000893
:10015000ADDC0008B1DC00086DD80008B5DC000893
:10016000B9DC0008BDDC0008C1DC0008C5DC000803
:10017000C9DC0008CDDC0008D1DC0008000000006C
:10018000D5DC0008D9DC0008DDDC0008E1DC000873
:10019000E5DC0008E9DC0008EDDC0008F1DC000823
:1001A000F5DC0008F9DC0008FDDC000820B1007A6D
:1001B000002818BF01F079BB104601F0CBBB00004E
:1001C0002DE9F84F04000E4692469846DFF830BA03
:1001D00006D10BF12803A3222BA1584601F038FDCC
:1001E0003EB90BF12803A4220BF16C01584601F033
:1001F0002FFDDDF82890032009F0010701F074FDC0
:10020000BF00050003D1304601F097FF19E085F8E3
:100210000A90002028606E603189B94206DA0BF13D
:100220002803B02220A1584601F012FD3089C01BDE
:1002300028811421304601F04DFF20B1284602F0FC
:10024000E1FF00201EE068684168E960BF08E08ABD
:1002500003F016FBE96808807F1D208B03F010FB7C
:10026000E9684880404603F011FBE96848604AEAC3
:10027000073188B203F004FBE96888810020E9684F
:1002800048822846BDE8F28F7463705F63726561CF
:1002900074655F7365676D656E743A20696E76612B
:1002A0006C69642070636200702D3E746F745F6CC3
:1002B000656E203E3D206F70746C656E000000001E
:1002C0002DE9F0470E461C00804692463746DFF87F
:1002D000309906D109F12803E82209F1900100F0D4
:1002E00023FB089D2DB909F12803E9221DA100F087
:1002F0001BFB56451AD2099880070AD4A97E4806E6
:1003000014D40A9828B1E86E002804BF286F00288A
:100310000CD0314601F21B218908BAEB810F31BFA5
:10032000574606F21B274FF6FC7007404FF4207229
:100330003946404601F067FD050008BF00200ED099
:10034000286830B109F1280340F20B120DA100F02A
:10035000EBFA6889801B20806E812E812846BDE8DB
:10036000F08700007463705F706275665F7072651D
:10037000616C6C6F633A20696E76616C69642070A1
:10038000636200006E65656420756E636861696E06
:1003900065642070627566002DE9FE4F8AB00546DF
:1003A0000020059000240690099080460026ADF8B4
:1003B0000C00079008906FF00F07DFF8449835B9EC
:1003C00009F128034FF4CF720FF2C44116E0B5F8DB
:1003D0006200698E4008814234BFADF80E10ADF85E
:1003E0000E00BDF80E0008B9ADF80E100A9848B915
:1003F00009F128034FF4D77209F5927100F094FACD
:10040000384685E1287D042818BF072805D0022832
:100410001CBF03286FF00A00F3D1BDF82C0005F1D2
:10042000620AD0B1BAF80200BDF82C1088422AD373
:10043000BAF80400092826D2B0B105F16C01486869
:10044000002804BFE86E002807D109F128034FF403
:10045000AB7209F1B40100F067FAE96EBAF804B0C2
:10046000002900F0CF8014E005F16C0041680029FC
:1004700004BF00680028F0D009F1280340F25912A7
:1004800009F1F001E7E7688B40F0800068833DE107
:10049000014608680028FBD10C46A77A2189BDF8DF
:1004A0000E0007F0010701EB8701884207DA09F126
:1004B00028034FF4F3720FF2F03100F035FABDF873
:1004C0000E102089091AA1EB8707BAF80610ADF8BB
:1004D0000C1089B3B8B2884207D209F128034FF44F
:1004E000FC720FF2DC3100F01FFABDF80C00BDF811
:1004F0002C100694884288BF0846BAB28242B8BF20
:10050000384680B2079007A8BDF80C2006880799E6
:10051000921BADF80C207F1ABDF80C0000281CBF00
:10052000BDF82C00864207D009F128034FF4007271
:100530000FF2AC3100F0F8F9BDF82C108E426CDAF5
:10054000B8B200281CBF208900286BD0B8B2891B24
:100550008842B1BFADF81070BDF82C10891BADF802
:1005600010109DF830000694C10718D59DF8301082
:10057000019101200290009503ABBDF81010BAB2B2
:100580000020FFF79DFE002805902DD00A98059BBE
:10059000BDF810208119586803F0A2F929E06168BC
:1005A00000E0014608680028FBD1087B10F0C00F6E
:1005B00012D14868498901440A9881420CD13EB160
:1005C00009F1280340F2312209F5AC7100F0ACF9D1
:1005D000BDF81000089010E0BDF8101001220020B6
:1005E00001F011FC0028059071D00A98059930445B
:1005F0004860059801F0FAFD8344BDF810108E198B
:10060000B6B20AE0BAF8060038B109F1280340F2A0
:100610004B2209F5C27100F087F9BDF82C00864223
:1006200080F2A880BDF82C00BDF80E10801B80B2AF
:10063000884288BF084604909DF83000C10727D53E
:10064000B8F1000F0CBF01200020029003AB9DF811
:100650003000019000950498BDF80E2081B236203C
:10066000FFF72EFE019090B341890498814207DA8A
:1006700009F1280340F2672209F5DA7100F054F914
:100680000A98019B049A8119586803F029F945E0FA
:10069000BDF80C0038B109F1280340F2712200BF07
:1006A00097A100F041F9049881B2012200F0F0F91D
:1006B00007000CD00A98304478604FF42072002173
:1006C00000F0E6F9019030BB384601F036FD688B4A
:1006D00040F080006883059808B101F02EFDB8F164
:1006E000000F1CBF404602F084FDBAF8040068B158
:1006F00005F16C004168002904BF0068002805D19D
:1007000009F128034FF44A7200F00CF94FF0FF3062
:100710000DB0BDE8F08F394601F082FD019801F07F
:1007200065FD83441FFA8BF00A2828BF0198CCD2BC
:10073000002000900022EB6D0199F3182846FFF786
:100740003FFD00280690C2D0B8F1000F08BF8046D8
:100750000CD0DDF8240030B909F1280340F2AB22B7
:100760006BA100F0E1F809990698086006980499D1
:10077000099044E70798B8B1676806460FE03989E1
:1007800071183981386848B978687B890A99324686
:10079000184403F0A5F87889301878813F68002F55
:1007A000EDD1208936182681BDF80C10AAF8061064
:1007B000059888B13CB909F1280340F2E12209F516
:1007C000FA7100F0B1F80599606801F029FD059A09
:1007D00021891089411821E0089880B2F8B1002CD5
:1007E0001CBF6068002807D109F1280340F2E72206
:1007F00009F50B7100F098F86268089903E0138915
:10080000CB181381024610680028F8D1108953894B
:1008100008181081CB18538120890918218105F10E
:100820006C02002C0CBFC2F80080C4F80080E86D98
:10083000BDF82C104118E965BAF80230BDF82C005B
:10084000AAF804B01B1ABAF80400AAF8023058B18A
:100850005168002904BF1068002805D109F1280358
:1008600040F2133200F05EF8069800281CBFC06802
:1008700000280AD09DF83000810706D4082002F035
:10088000FFFF0699C96800F0BEF9002040E70000AC
:100890007463705F77726974653A20696E76616C13
:1008A00069642070636200006D73735F6C6F6361D5
:1008B0006C20697320746F6F20736D616C6C000025
:1008C000696E636F6E73697374656E74206F76659D
:1008D0007273697A652076732E2073706163650088
:1008E000696E636F6E73697374656E74206F76657D
:1008F0007273697A652076732E206C656E00000035
:100900006F76657273697A65203D3D203000000086
:10091000707265765F73656720213D204E554C4CA3
:10092000000000000FF61C31484601F091B92DE996
:10093000FE4F05008846B24E07D106F1280340F26B
:100940004B3206F5197100F04BFCEC6E002C3AD0DE
:10095000B8F1000F0AD106F1280340F2533206F530
:10096000227100F03DFC6FF005008FE02189884581
:1009700080F0858005F132073888404507D206F1BE
:10098000280340F25B320FF6DC2100F029FC2089BD
:1009900038B906F128034FF457720FF6D82100F04A
:1009A0001FFCA07A019080002689A6EB080600F0C3
:1009B000040AB6B20AEB06014FF4207289B200F0C5
:1009C00067F85FEA00095FD0606821890389D9F878
:1009D00004C05B1A43449BB232460CEB0A0101F09F
:1009E000DEFCB0424DD1E06800F012F900F03F0AA1
:1009F0004FF0000B5FEA0A7144BF0AF0F70A4FF0AC
:100A0000080B5FEACA7044BF2AF0010A4BF0010BE1
:100A1000E16800F021FB0199C9B2009100EB0803E5
:100A20005A4649462846FFF7CBFB050029D06068A7
:100A300001F0DCFBB98E081AB88660680189891B51
:100A400089B201F0CAFA2089861B2681504602F03D
:100A500017FFE16800F0D7F8606801F0C7FBB98EB6
:100A60004018B886686801F0C1FBB98E4018B88696
:100A700022682A602560286808B90021F9860020CC
:100A800004E0484601F059FB4FF0FF30BDE8FE8F0F
:100A9000362001F0B8B938B5040008D158480FF62F
:100AA000E41100F1280340F2EB3201F0D1F8E56ED9
:100AB000A5B100E0054628680028FBD100F0A7F8A2
:100AC00010F0070F0AD1012002F0DAFE00F09AF8C8
:100AD000608B40F020006083002032BD2046BDE8DE
:100AE000344001212DE9F8438946002619F0030F0F
:100AF0000446DFF80C8107D108F1280340F21242C6
:100B000008F52B7100F0F5F93CB908F1280340F223
:100B100013420FF68C1100F0ECF95FEA897048BFC0
:100B200001264FF42072B100FFF7B2FF050014D088
:100B30006889B0EB860F07DA08F1280340F23A42E1
:100B400008F5417100F0D5F900964A46E36D294653
:100B50002046FFF735FB050006D1608B40F0800092
:100B600060834FF0FF3048E0287B10F0030F07D080
:100B700008F1280340F242420FF6441100F0B9F99F
:100B8000288938B108F1280340F2434208F5507132
:100B900000F0AFF904F16C06316811B9356004E07A
:100BA000014608680028FBD10D6004F166070020AB
:100BB00019F0030F788002D0E06D401CE0655FEA19
:100BC000C97003D5618B41F020016183686801F031
:100BD0000DFB39884018388080B268B171680029EF
:100BE00004BF3068002807D108F1280340F26642AC
:100BF00008F55B7100F07DF90020BDE8F28300008C
:100C00008CBE0008E9688A89104388817047E868CB
:100C1000808902F035BE2DE9F84F040084B0DFF87A
:100C20005C8707D108F1280340F2E1420FF6A801E2
:100C300000F05FF9207D012807D108F1280340F278
:100C4000E44208F5657100F054F9DFF834070168F3
:100C5000A14200F04A8104F14806318B308881427C
:100C600034BF03910390756A6DB3221D214620465F
:100C7000FFF79CFA5FEA000907D0002C1CBF206830
:100C8000002807D119F1040002D16FF003002DE113
:100C90000068206000F079F9616C2F89039B401A8D
:100CA000C019834204F1980216D21946338B994237
:100CB00004BFB06A002806D1507820B90021012075
:100CC000117050709170A07E810740F1098120461B
:100CD00005B0BDE8F04FF5E200205070B76A27B1CB
:100CE00000E0074638680028FBD100F04EF9616C3F
:100CF0002B89039A401AC0188242C0F0ED80E9683F
:100D0000888902F0BDFD400707D508F1280340F2AD
:100D100037520FF2DC7100F0ECF8B06AA0B1628BD0
:100D200012F0440F10D1716A29B1086860B90889BE
:100D3000618E884208D2B08B30B1F08B082803DC7A
:100D400012F0A00F00F0C880207D022804D01020EF
:100D500002F096FDFFF756FF3CB908F1280340F278
:100D6000B9520FF2A47100F0C4F8284600F0C4F89C
:100D7000002859D1606A02F089FDE9688860608DB9
:100D800002F07EFDE968C881606A628D8218E262C5
:100D900001F1140AA87AC1070BD5221D49464FF468
:100DA000067002F047FC40F0017002F06FFD4AF857
:100DB000040BB4F93000002844BF00212186606B89
:100DC00030B9DFF8C0150868606300F0DEF8A06392
:100DD0006868E968426843898A1A92B29B1A43811B
:100DE000038941609A1A0281002008821431A87A8E
:100DF00000F0010001EB80018A4507D008F12803CB
:100E000040F21C620FF2207100F073F80620CDF85A
:100E100008900190221DA17A0091E37A686821462A
:100E200000F083FE010028D128687062217D02292C
:100E300004D0618B4FF6FC700140618300F0A5F88F
:100E40008246FFF7E4FE10F0030118BF0121288954
:100E500050440818B168091A48BFB060FFF7D7FEC0
:100E600010F0030018BF0120298940182DD000225E
:100E70002A60B06A30B9B56225E0618B41F080012B
:100E8000618333E000F081F8F968824600F0E4F80D
:100E9000BAEB000016D504F1700A01E0DAF800A000
:100EA000DAF8000040B100F0D6F8E968834600F0B7
:100EB000D3F8BBEB0000F1D4DAF800002860CAF8E0
:100EC000005005E03D602F4602E0284602F09AF906
:100ED000756A002D7FF409AF706A08B9002131846A
:100EE0004FF67F70618B01406183002005B0BDE843
:100EF000F08F404600F0ACBE10B5040007D100F002
:100F000024F940F29A5200F56F7100F0A1FE60687A
:100F1000817B012901D0012010BD002010BD70B5DA
:100F2000040007D100F011F940F2636200F581611D
:100F300000F08EFE256F2DB303E0FFF7DDFF08BB49
:100F40002D68286800282846F7D1FFF7D5FFC8B9D3
:100F5000E06E28600020216FE1662067618B41F41C
:100F60000061618300F011F80646FFF750FE10F0B3
:100F7000030018BF0120298971184018E06400207F
:100F8000606370BD6FF0050070BDE968486802F0ED
:100F90007DBC10B5040007D100F0D7F84FF4D36240
:100FA00000F22C4100F054FE94F84200FF281CBFD0
:100FB000401C84F842002046BDE810402BE610B5E6
:100FC000040009D1DFF8B4030FF2705100F12803D7
:100FD00040F2AD6200F03CFE2046FFF7A0FF18B9DA
:100FE0002046BDE81040D4E710BDF8B5050009D192
:100FF000DFF888030FF2605100F1280340F2C1626C
:1010000000F026FE05F13406F46B1CB12046FFF714
:1010100073FF10B16FF00500F2BD2068F0636C350E
:1010200000E02D68286838B100F015F8E16807463F
:1010300000F012F83F1AF4D4296821602C6020686F
:1010400008B90021B186B07BFF281CBF401CB073DB
:1010500000203060F2BDC168486802F017BC38B5A6
:10106000040008D1C5480FF2085100F1280340F2EE
:10107000F96200F0EDFD04F14805A86A00B3A07E16
:1010800041071DD42046FFF7B0FFC8B9288B298837
:10109000814238BF084600EBD0704010618E82B2AA
:1010A000B2EB410F38BF480001EB410111FA80F16A
:1010B0002980628B42F004026283688000202086CF
:1010C00031BD2DE9F84F0D468246114649191431BC
:1010D00099464FF4207289B2222000F094FE040059
:1010E00030D0608905F11401884207DA00F02DF84C
:1010F00040F2247200F58A6100F0AAFDDDF8348028
:101100000C9EDDF82CB00A98676802F0B9FB3880B5
:101110002D06584602F0B4FB7880C7F8049050467C
:1011200002F0B4FBAD0EB8606D1D46EA0536B0B2F4
:1011300002F0A6FBB881404602F0A2FBF881002035
:10114000388278822046BDE8F28F8C4800F128036F
:101150007047F8B5040084B00D4616461F4607D107
:10116000FFF7F3FF40F2427200F5906100F070FD6E
:10117000608D0390102102913B46228B01923246F2
:10118000E08A00902946606AFFF79BFF18B1616A08
:10119000628D8A18E26205B0F0BD70B50C0015468C
:1011A000764E07D106F1280340F2567206F5956196
:1011B00000F016F8606800F11401143005F0010524
:1011C00000EB850291420AD006F128033046BDE8C3
:1011D000704040F275720FF2503100F039BD70BDB1
:1011E000304600F035BDFEB50C00054616461F46DC
:1011F00007D1FFF7AAFF40F2877200F59A6100F06D
:1012000027FD3A4631462846FEF7D0FF10B96FF069
:1012100003050FE0002D19BFEB7AA97AFF23002107
:1012200002900091062001903A463146204600F097
:101230007CFC0546204600F080FF2846FEBD2DE9D7
:10124000F8431C0084B0074688461646DFF82C9108
:1012500007D109F1280340F2C4720FF23431FFF7CD
:1012600063FB0C9D3DB909F1280340F2C5720FF2F2
:101270003C31FFF759FB404602F008FB46F20801FB
:1012800003911422BDF83830BDF834100193029256
:1012900000910346002200213046FFF712FF0600AE
:1012A0000DD00023002231463846FFF776FF2B464B
:1012B00022463146384605B0BDE8F04393E705B015
:1012C000BDE8F08338B5040007D12C48BEA100F179
:1012D000280340F2EA7200F0BBFC206D02F0D6FA5F
:1012E0000346002200212046FFF733FF050006D108
:1012F000608B40F0030060836FF0010032BD00237B
:10130000002229462046FFF748FF231D2246294692
:101310002046FFF768FF628B010012BF42F0030214
:101320004FF6FC710A40628332BD000038B50500FB
:1013300007D11248ACA100F1280340F6240200F0C6
:1013400087FC286D401E02F0A1FA0346002200210E
:101350002846FFF7FEFE040002D14FF0FF3032BDF9
:101360000023002221462846FFF717FF2B1D2A469F
:101370002146284601B0BDE8304034E78CBE000865
:10138000F4B20020200000202DE9F041040007D134
:10139000FFF7DBFE40F64F0200F2FC4100F058FC84
:1013A000E66E0EB900204BE094F89A00FF281CBFAF
:1013B000401C84F89A00F068FFF72AFCC00704D5A7
:1013C00031894D1EAD41ED0F00E00025F068436806
:1013D00085F0010200212046FFF7BBFE5FEA00080E
:1013E00008BF4FF0FF302BD0D8F804704DB111205A
:1013F00002F046FABA894CF2FF010A401043B88164
:1014000009E07068318903895B1A9BB2012207F1F8
:10141000140100F0C4FFF168FFF71EFE216D401CAF
:10142000091A48BF20650023002241462046FFF7E5
:10143000B4FE231D224641462046BDE8F041D2E6D7
:10144000BDE8F0817463705F77726974653A2076E5
:10145000616C6964207175657565206C656E677473
:101460006800000073706C6974203C3D206D7373DC
:1014700000000000757365672D3E6C656E203E2090
:10148000300000007463705F73656E645F66696E40
:101490003A20696E76616C696420706362000000B6
:1014A0007463705F656E71756575655F666C6167A5
:1014B000733A20696E76616C696420706362000023
:1014C0007365672D3E746370686472206E6F74205C
:1014D000616C69676E6564007463705F6F757470CA
:1014E00075743A20696E76616C696420706362007D
:1014F000525354206E6F7420657870656374656410
:1015000020686572652100007463705F6F75747088
:1015100075745F7365676D656E743A20696E766188
:101520006C696420706362006F7074696F6E732001
:101530006E6F742066696C6C656400007463705F24
:101540007265786D69745F72746F3A20696E766146
:101550006C696420706362007463705F7265786D9B
:1015600069743A20696E76616C6964207063620008
:101570007463705F7265786D69745F666173743AE5
:1015800020696E76616C69642070636200000000FF
:101590007463705F7273743A20696E76616C69640B
:1015A000206C6F63616C5F69700000007463705F32
:1015B0007273743A20696E76616C69642072656D2D
:1015C0006F74655F697000007463705F73656E644B
:1015D0005F656D7074795F61636B3A20696E7661E7
:1015E0006C696420706362007463705F6B65657022
:1015F000616C6976653A20696E76616C6964207009
:101600006362000070472DE9F0470500DFF8BC82F7
:1016100006D108F1280340F227120FF2BC2108E09E
:10162000099C200008D108F128034FF4947208F1B6
:10163000680100F0A2F82DE0DFF8940201B901463C
:1016400002B9024603B903460A98089F0FF25526CD
:101650000FF2A0294FF0000CC5F804C0C5F808C06F
:10166000C5F80CC06E61A5F824C005F12D0686F8FA
:1016700000C02F62C5F81CC0DFF8587297F800C090
:1016800086F803C02861284600F090F82846A04755
:10169000002803D0002032E0401CF070F078FF28D2
:1016A00004BF0021F1707C684FF0000A1BE0AC42DF
:1016B00006D108F1280340F28B12494600F05DF88C
:1016C0000AF1010ABAF5807F07DB08F1280340F22E
:1016D0008D1208F18C0100F050F8F07894F8301079
:1016E0008142D9D02468002CE1D1F078FE280CBFCB
:1016F0000020401C3870786828607D602846BDE86E
:10170000F08738B504460D4601F0C8FF294620464B
:10171000BDE8344002F0C6B92DE9FC410C00064694
:1017200015460FF2E417DFF8A48105D108F128036C
:1017300040F2CB1200F020F82DB908F128034FF445
:10174000E67200F019F820687168884211D00090A4
:101750002846716829606946FFF7D3FF002C0CBF4B
:101760000020206870600121304600F061F80120FF
:1017700000E00020BDE8F6813946404600F068BA36
:101780000A6883689A4204D001B90022826001206D
:101790007047002070470A68C3689A4204D001B9B4
:1017A0000022C26001207047002070472DE9FC41F3
:1017B00080460C0017461E46454808BF044607B938
:1017C000074606B90646002C1CBF2068002803D136
:1017D00000F012F8012500E00025002239464046BD
:1017E000FFF7CEFF002231464046FFF7D4FF0DB988
:1017F00000F002F8BDE8F3816A46214640468BE7D7
:10180000344988607047000038B9304842A100F17F
:1018100028034FF4547200F01BBA90F82D10CA0739
:1018200005D441F0010180F82D10032100E070473C
:1018300038B504000D4608D1244800F1280340F2D1
:101840006D3200F1E00100F003FA94F82D1001F080
:10185000050005280BD1EA0709D5606838B10807EB
:1018600005D5211D2046BDE8344002F0EBBC31BD5A
:1018700038B916482FA100F1280340F29B3200F03E
:10188000E7B990F82D10CA0707D501F0FE0180F8DE
:101890002D10090748BF02F03BBA704700B1C16183
:1018A000704700006FF00B00704701000BD0094833
:1018B000406800E0006830B190F830305B1CDBB26B
:1018C0009942F7D1704700207047000014D20008F9
:1018D000A8DB0008ACB300206E657469665F6164C4
:1018E000643A20696E76616C6964206E657469661D
:1018F000000000006E6574696620616C7265616449
:101900007920616464656400696E76616C69642045
:10191000706F696E746572006E657469665F736579
:10192000745F75703A20696E76616C6964206E65CB
:10193000746966006E657469665F7365745F646F71
:10194000776E3A20696E76616C6964206E657469A1
:101950006600000070B5DFF8D41204680A6800E081
:101960001268AAB192F82D3003F005010529F7D1CC
:1019700051680029F4D0956805EA040629408E4292
:1019800004D09907ECD4D3689C42E9D1104670BDCD
:10199000A749096859B191F82D2002F00502052ADE
:1019A00005D14A68002A1CBF00787F2801D1002099
:1019B00070BD084670BD80B5014691F82D00C20784
:1019C0000AD54A6842B19B484069904202D002F071
:1019D00087FC08B1012002BD002002BD2DE9F843BB
:1019E000054689466F683978080904284BD1880074
:1019F00000F03C08788801F043FF298988420446BA
:101A000003D22146284600F0E8FA688940453ADBCF
:101A10002989A14237D3B8F1140F34DB3869854ED8
:101A20007061F8683061307D00F0F000E02808D186
:101A300099F82D00C10702D5D9F8040028B900246F
:101A400015E04846FFF7B7FF08B14C460FE0307D80
:101A500000247F280BD07548046800E0246834B166
:101A60004C45FBD02046FFF7A6FF0028F6D0306992
:101A7000494602F035FC30B9307C00F0F000E02837
:101A800018BF002C03D1284600F057FB09E0F88866
:101A90004FF63F71084207D0284602F015FD0500B9
:101AA00001D100203FE06F683460C6F80490B76051
:101AB00041463878800000F03C00B081284600F0B4
:101AC0000BFB787A01280DD0062806D011280ED1FC
:101AD0004946284601F01BFF1EE04946284603F010
:101AE00053F819E04946284604F056FA14E07069A4
:101AF000214602F0F5FB60B9307D00F0F000E028EF
:101B000007D04146284600F016FB0221284604F083
:101B1000D2FA284600F011FB002030607060B060FF
:101B2000B08130617061BDE8F2833EB5089D0C461E
:101B300022B100291ABF096800292C1D02959DF8C1
:101B400018109DF81C5000910195214600F002F8F4
:101B50003EBD00002DE9F84306460D46B07BDFF898
:101B6000D89001281446984600F0088009F128030F
:101B70004FF4557233A1484600F06AF8002C37D074
:101B80001421304600F0A6FAA8BB708977681428A3
:101B900008D209F1280340F2893209F16C01484664
:101BA00000F056F809980899787287F8088045225D
:101BB0002068DFF8888038613A707970308901F0E8
:101BC0005FFE78800020F880B8F80090484601F069
:101BD00057FEB88009F10100A8F800001DB91848A7
:101BE0000168F96001E02868F8600021798109E066
:101BF0007089142802DA6FF0010014E07168086936
:101C000000906C460A9B988C40B13189884205D27D
:101C100022461946304602F033FE04E018465B695E
:101C2000224631469847BDE8F2830000B0B3002059
:101C3000B4B300207CB3002088D70008FCB3002098
:101C4000A8DB0008702D3E726566203D3D20310006
:101C50000EB4C0B5024603A800210190009101AB6B
:101C60000121044878440C3004F06EFA06BC5DF89B
:101C700010FB00BF99BE000030B5816800220A60E9
:101C800000234268D21C9208920005E00C681460A0
:101C90000A605B1C05882A444488A342F6DB30BDF9
:101CA00038B50024304DA0B255F82000FFF7E4FF0E
:101CB000641CA1B20929F6D331BD10B5806804684F
:101CC00084B12168016014F0030009D0264800F1B6
:101CD000700300F14C0140F219122430FFF7B8FFF5
:101CE000204610BD002010BD10B509281E4C0ADB8F
:101CF00004F1700340F257121CA104F12400FFF715
:101D0000A7FF002010BD54F82000BDE81040D4E724
:101D100038B504460D4615F0030009D0DFF8480039
:101D20001AA100F1700340F26D122430FFF790FF0A
:101D3000A06801682960056031BD000010B5092860
:101D4000094C0ADB04F1700304F12400BDE81040E3
:101D50004FF4D57215A1FFF77BBF21B154F82000D5
:101D6000BDE81040D4E710BD38D600086D656D7031
:101D70005F6D616C6C6F633A2074797065203C20F4
:101D80004D454D505F4D4158000000006D656D7030
:101D90005F667265653A206D656D2070726F706563
:101DA000726C7920616C69676E6564006D656D7039
:101DB0005F667265653A2074797065203C204D45F8
:101DC0004D505F4D41580000DFF88816DFF8882637
:101DD00000200870106800E0C06820B1416F002941
:101DE000FAD001F089BC704770B5BDF91050059C60
:101DF000002606604160057344730121C6730281A9
:101E00004381817370BD2DE9FE4F164605460F468E
:101E1000DFF84896012E18BF412E06D0B6F5C17FD7
:101E20000AD0B6F5207F5CD08EE0002000F095F857
:101E300004462046BDE8FE8F0024A3460820FFF795
:101E400053FF5FEA000A3BD0E81C4FF6FC710840E4
:101E5000C0F514701FFA87F880B2804588BF8046AD
:101E60000AEB050000F110010022C91C019289084B
:101E700000964346BAB289005046FFF7B5FF9AF87C
:101E8000040010F0030F07D009F1580340F20112CB
:101E900009F1280100F080FAED1CAD08AD00D5F580
:101EA000147507D109F1580340F2031209F19801A2
:101EB00000F072FA002C0CBF5446CBF800A008E0EA
:101EC000DFF89015012008700CB3204600F035F9BA
:101ED0001DE0A7EB08070025B8B20028D346ADD116
:101EE000A7E7EA1CF91C92088908920002EB81021C
:101EF00002F1100092B2B2EB810F24BF82B2B2EBBA
:101F0000810F04D380B205F0FFF9040001D1002055
:101F100090E7002001900096601900F11001C91CA3
:101F200089083B463A4689002046FFF75DFF207945
:101F300010F0030F07D009F1580340F2231209F102
:101F4000CC0100F029FA74E709F1580340F2271296
:101F50000FF20C5100F020FAD9E7FEB517460546FE
:101F60000E46412F18BF012F09D0DFF8F0040FF201
:101F70000C5100F158034FF4A572FFF769FE0720DA
:101F8000FFF7B2FE040001D10020FEBD0020019049
:101F900000973346324629462046FFF725FF204664
:101FA000FEBD3EB51C46C01C079B800801EB8005AA
:101FB000AB4201D200203EBD069B002B14BF03EBB9
:101FC000800000200223019300920B460A4601463E
:101FD0002046FFF709FF20463EBD2DE9F0410400F1
:101FE0000E46DFF8785407D105F158034FF4CC7250
:101FF0000FF29C4100F0F7F82789BE4238D2BF1B90
:10200000BFB20FF2A4480CE0361A2089C01B208111
:10201000B6B224682CB905F1580340F2AF1200F0B3
:10202000E1F86089B042EFDB207B10F00F0F16D192
:102030006089864213D0617B880710D46168091BD0
:10204000711889B2204605F0D3F8040007D105F1D4
:10205000580340F2BD120FF2684100F0C4F86681E7
:1020600060892081206808B100F067F800202060B6
:10207000BDE8F081F8B558B9DFF8E0030FF25C4134
:1020800000F1580340F2DF12FFF7E2FD0120F2BD3C
:10209000B1F5803FFAD2D9B104890B46E418A5B254
:1020A0009EB2B542F2D3077B3D0607D5426849424E
:1020B000114400F11005A94205D2E7E7002AE5D056
:1020C0004268494211444160048141895B1843815F
:1020D0000020F2BD0022CDE710B5DFF8804330B913
:1020E00004F1580340F24B220FF2F0310DE0B1F54C
:1020F000803F0DD2B1B143898AB293420ADA04F12A
:10210000580340F255220FF2E0312046FFF7A0FDC0
:10211000012010BD4468214441609B1A018943811C
:102120008A1A0281002010BD0B0058BFFFF7A2BF22
:102130005B421946D0E70122F6E72DE9F843040097
:10214000DFF8185309D105F158034FF437720FF235
:102150008C3100F048F8002042E000260FF2C03831
:102160000FF2A439A07B30B905F1580340F2F122F7
:10217000494600F038F8A07B401EA073C0B270BB87
:10218000617B207B27688A0700F00F000DD520694E
:1021900038B905F1580340F2FF2205F1F80100F0CB
:1021A00022F821692046884716E0022802D12146FC
:1021B000082003E0012804D121460720FFF7BEFDD7
:1021C0000AE018B9204604F06EFF05E005F1580357
:1021D00040F20F3200F006F8761C3C00C2D1F0B29B
:1021E000BDE8F28341462846FFF732BD0146002094
:1021F00001E00968401C0029FBD180B2704770B132
:10220000817B491C8173C9B249B9DFF850020FF2D2
:10221000243100F1580340F24232FFF719BD7047F4
:1022200070B504000D46DFF8346218BF002D0FD1E1
:1022300006F1580306F58E713046BDE8704040F255
:102240005A32FFF705BD21892A8951182181044698
:1022500020680028F7D120896189884208D006F1DA
:10226000580340F2623206F5AA713046FFF7F0FCDF
:10227000206840B106F1580340F263320FF2C821E2
:102280003046FFF7E5FC2189288941182181256026
:1022900070BD10B50C46FFF7C3FF2046BDE81040E7
:1022A000ADE72DE9F0470546002600270C466FF004
:1022B0000F08DFF8A891002D18BF002C03D0288943
:1022C0002189884206D209F1580340F2CA3209F541
:1022D000D4714AE06089A0EB070A6889801B5045E9
:1022E00038BF824660686B68C1195246981901F080
:1022F000F7FA68895644B042574407D209F15803A7
:1023000040F2D9320FF2502100F046F86089B8420D
:1023100007D209F1580340F2DA320FF2542100F0EB
:102320003BF86089874224BF002724686889864279
:1023300002BF00262D68002D10D02CB160892189A4
:10234000884201D12068A0B92DB1688929898842C5
:1023500001D1286890B9002CBCD11AE0CCB109F1A8
:1023600058034FF479720FF2242100F015F840461B
:1023700010E009F1580340F2EA3203E009F1580392
:1023800040F2EF3209F5EC7100F006F86FF005004D
:1023900000E00020BDE8F0874846FFF759BC2DE972
:1023A000F8430446002688461546B1462B4834B902
:1023B00000F1580340F20A420FF2E01108E0B8F1D0
:1023C000000F1CD100F1580340F20B4200F50171DF
:1023D000FFF73EFC002021E0C01A80B2AFB2874276
:1023E000C8BF074660689BB2C118B0B23A464044C5
:1023F00001F076FA2468B944BE19ED1B0023A8B297
:1024000050B107E099B260890029E5D08142E3D359
:1024100024681B1A002CF5D11FFA89F0BDE8F2835D
:1024200038B515460A462989FFF7EDFC040001D1AD
:10243000002032BD2946FFF734FF40B1DFF81C0011
:102440005EA100F1580340F22452FFF701FC204640
:1024500032BD0000FFB300202C000020C4CA0008D9
:10246000706275665F616C6C6F633A206572726F43
:102470006E656F757320747970650000696E7661A2
:102480006C696420706275665F7479706500000025
:10249000706275665F7265616C6C6F633A20702064
:1024A000213D204E554C4C00706275665F7265612F
:1024B0006C6C6F633A207120213D204E554C4C00CE
:1024C0006D656D5F7472696D2072657475726E658D
:1024D000642071203D3D204E554C4C007020213D24
:1024E000204E554C4C000000696E6372656D656E40
:1024F000745F6D61676E6974756465203C3D207022
:102500002D3E6C656E000000706275665F667265D8
:10251000653A20702D3E726566203E203000000036
:10252000696E76616C69642070627566207479707A
:10253000650000007062756620726566206F7665C2
:1025400072666C6F77000000702D3E6E65787420A7
:102550003D3D204E554C4C006F66667365745F744C
:102560006F203C3D20705F746F2D3E6C656E0000E7
:102570006F66667365745F66726F6D203C3D207098
:102580005F66726F6D2D3E6C656E0000705F746FDC
:1025900020213D204E554C4C0000000070627566B5
:1025A0005F636F70795F7061727469616C3A206902
:1025B0006E76616C69642062756600007062756693
:1025C0005F636F7079206661696C6564000000006C
:1025D00080B504F093FFC0F30D00DFF84417A0F5B9
:1025E0008040088001BD000010B50446207D012810
:1025F00040F00880DFF82C0705A100F12803D42261
:10260000FFF726FB2146BDE810400120FFF796BBEF
:102610007463705F667265653A204C495354454E49
:102620000000000080B500F06AFDDFF8C40A017800
:10263000491C0170C80703D5BDE8014000F082BB0A
:1026400001BD00002DE9FE4304000D46DFF8D486ED
:1026500040F0078008F128034FF4AF7274A100F036
:1026600025F9217DDFF88C6A002D42D0042918BF9E
:1026700007293ED1A06F002804BF208DB0F5066F5A
:1026800037D0A07EC10606D408F128034FF4B272F9
:102690006FA100F00BF9208B0290221DE18A0092BD
:1026A00001912346626A216D2046FEF7C8FD20464F
:1026B00000F022FF3069A04203D1C068306106E01B
:1026C000084620B1C168A142FAD1E168C16000208A
:1026D000E0600121DFF8942A31701068A04204D133
:1026E00003F0BFFB0020BDE8FE832046FFF77CFF20
:1026F000F8E719B1022955D013D35BE0E08A00282E
:10270000F3D0B068A04203D1C068B06006E00846CC
:1027100020B1C168A142FAD1E168C1600020E06047
:10272000E3E794B908F1280340F211125CA100F02C
:10273000BDF80020017D012900F0078008F1280381
:102740004FF4897249A100F0B1F801270FF2C05986
:1027500059F8270005686CB908F12803FF2208F131
:10276000680100F0A3F805E0E86FA04204BF002173
:10277000E967ED68002DF7D17F1C042FE8D32146CF
:1027800006F10C0000F0E8FE207D012805D108F1DB
:102790002803DF223BA100F089F821460220FFF741
:1027A000CDFA9FE7214606F1100000F0D5FE01208A
:1027B00030709AE72046BDE8FE4300BF38B50500FB
:1027C00040F00980DFF85C0535A100F128034FF4E3
:1027D000CE72FFF73DFA287D032804D004280AD0E2
:1027E000072813D019E02846FEF755F9040007D151
:1027F0000520287505E02846FEF74DF90400F7D0BE
:102800006CB92846FEF707FA204632BD2846FEF787
:1028100042F90400F4D10920EBE7002032BD14F1A5
:10282000010FF1D1688B40F008006883F5E70000E4
:102830007463705F636C6F73655F73687574646FE6
:10284000776E3A20696E76616C696420706362000D
:102850007063622D3E666C61677320262054465F6C
:102860005258434C4F534544000000007063622DA2
:102870003E7374617465203D3D204C495354454E70
:10288000000000007463705F667265655F6C697359
:1028900074656E3A20214C495354454E00000000A7
:1028A00070636220213D204E554C4C004046FFF79E
:1028B000CFB9000080B558B9DFF84C0A0AA100F181
:1028C00028034FF4F472FFF7C3F96FF00F0002BD55
:1028D000017D012903D0418B41F010014183012189
:1028E000BDE80440AEE600007463705F636C6F7314
:1028F000653A20696E76616C6964207063620000DD
:102900002DE9F84F040084B08B46DFF818040AD193
:102910000DF1140DBDE8F04F00F1280340F23D2207
:102920002DA1FFF795B9217D012907D100F12803D9
:1029300040F2412200F19001FFF78AF9217DDFF892
:10294000B4770A2909D1214607F1140000F004FEEA
:10295000204605B0BDE8F04F46E6206D0390002507
:10296000666AD4F890A0D4F81080E08AA94621B90C
:1029700060B100F0D9F9E56008E08146214607F131
:10298000100000F0E9FD01205D463870206F08B1AD
:1029900000F02FFCE06E08B100F02BFC606F08B176
:1029A00000F027FC5DB1208B0290211D0091CDF835
:1029B00004902346039932462046FEF740FC204609
:1029C000FFF712FE5FEA0A0003D06FF00C014046E9
:1029D000D04705B0BDE8F08F7463705F6162616ECF
:1029E000646F6E3A20696E76616C69642070636210
:1029F00000000000012183E7F8B505460C001346EE
:102A000008BFDFF8F04ADFF81C034DB900F12803D6
:102A100040F2A92222A1FFF71BF96FF00F00F2BDCF
:102A2000297D51B100F1280340F2AB2200F1C4012D
:102A3000FFF70EF96FF00500F2BD180006D100F0A7
:102A400041F903001DD16FF00100F2BD00270FF224
:102A5000C02656F82700026800E0D26872B1D08A1A
:102A60009842FAD13AB1116829B124B120680028FE
:102A700018BF8142F1D16FF00700F2BD7F1C042F17
:102A8000E7DB002C1EBF206800282860DFF8640602
:102A9000EB828168E960856004F092FD0020F2BD60
:102AA0007463705F62696E643A20696E76616C6906
:102AB000642070636200000010B50C0040F00980D3
:102AC000DFF8600206A100F1280340F20F32FFF7A1
:102AD000BFF82046FFF78EFF6FF00C0010BD00001E
:102AE0007463705F6163636570745F6E756C6C3A7C
:102AF00020696E76616C696420706362000000007A
:102B00000022F8B5064614460025864856B900F15D
:102B1000280340F2593200F1EC01FFF799F86FF009
:102B20000F0045E0317D51B100F1280340F25A32E7
:102B300000F58E71FFF78CF86FF00E0038E0022080
:102B4000FFF7D2F8050008BF4FF0FF3030D03069F2
:102B5000DFF8A07528610120F18AE9822875717D6E
:102B600069750021707A68722972F07AE872B17A18
:102B7000A97232682A60F08A70B1B868B04203D195
:102B8000C068B86006E0084620B1C168B142FAD119
:102B9000F168C1600020F0603046FFF725FDDFF8E6
:102BA000900AA861F968E960FD6004F009FD002061
:102BB00004B120702846F2BDF8B50400DFF848578C
:102BC00008D105F1280340F2A63205F5AA7128467E
:102BD000FFF73EF8218D666A628E701840F2314729
:102BE000BA42A8BF4FF48662E36AC01A821A01D4BF
:102BF0006185F2BDF01A0028C8BF00260CDC9E1BC0
:102C0000B6F5803FC0F0088005F1280340F2B632E7
:102C100003A12846FFF71CF866850020F2BD0000DE
:102C20006E65775F7263765F616E6E5F776E64204C
:102C30003C3D2030786666666600000038B50400CA
:102C40000D46DFF89C0A0AD10DF1040DBDE83040B5
:102C500000F1280340F2CF3214A1FEF7F9BF217D25
:102C6000012907D100F1280340F2D33200F5BC71ED
:102C7000FEF7EEFF208D2D18ADB240F661018D42BA
:102C800001DA854201DA4FF4066525852046FFF713
:102C900093FFB0F5067F08D3608B40F0020060839D
:102CA0002046BDE83240FDF7B6BF31BD7463705FAA
:102CB0007265637665643A20696E76616C6964203A
:102CC0007063620070B5002211A3154C2088401C6F
:102CD0004FF6FF7581B2A94208BF4FF440402080F3
:102CE00000252088E9B253F82110096800E0C9687E
:102CF00049B1CE8A8642FAD1521C90B2B0F5804FCB
:102D0000E4DB002070BD6D1CE9B20429EADB70BD74
:102D100028000020240000202C000020300000208B
:102D2000D0000020ACC30008B868A04203D1C0683E
:102D3000B8607047084620B1C168A142FAD1E16885
:102D4000C16070472DE9FE4FDFF8A863DFF8B8A532
:102D50007068401C70607078401C707028E0A84259
:102D600007D00AF1280340F271520AF53C7100F0D5
:102D7000C3F9E8683061B8F1000F0BD0288B0290DE
:102D80002A1DE98A009201912B466A6A2169284628
:102D9000FEF755FA2C692846ED68FFF725FC002060
:102DA00030705FB16FF00C012046B847307828B121
:102DB00035694FF0000901E0A946ED68002D00F0EB
:102DC0005881287D38B90AF1280340F2BE420AF53D
:102DD000E87100F091F9287D012807D10AF1280354
:102DE00040F2BF420AF5FE7100F086F9287D0A28FC
:102DF00007D10AF128034FF498620AF50A7100F02E
:102E00007BF97078A97F8142D6D0A8774FF0000B6C
:102E1000287D0228D84605F1400405F1980706D11F
:102E2000A0780628A8BF4FF0010B80F29A80A07806
:102E30000C2819DA7878002840D0206B38B10AF1D4
:102E4000280340F2D4420AF5167100F055F9E06A01
:102E500038B90AF1280340F2D5420AF5237100F08F
:102E60004BF9B8780C2802DB4FF0010B6CE0797855
:102E70000FF60420014411F8010C39788142BCBFDF
:102E8000491C3970397881425EDB218C0029284643
:102E900004D1FEF779FA002856D107E0FDF747FD87
:102EA00020B92846FDF7B7FE00284DD087F80080EE
:102EB0007878062848D8401C787045E0B5F930008D
:102EC000010005D447F6FF7290421CBF401C2886C3
:102ED000B5F93000B4F90010884235DB2846FEF71A
:102EE0001EF818B1206B78BBE06A68B3287D022811
:102EF00014D0A0780C2828BF0C20B5F93C10B5F9E7
:102F00003E2002EBE1020FF66011085602FA00F0D3
:102F100047F6FF718842A8BF08462080A5F8308098
:102F2000208C2189814238BF0846698E49004008BB
:102F30008BB2984238BF08466081688E2081A4F821
:102F40002A802846FEF725F8287D062809D1A87E84
:102F5000C10606D57068296A401A292828BF0BF1D6
:102F6000010B687A010728D5287D042818BF072897
:102F700023D17168286ADFF86C27081A616D52182E
:102F80004FF4FA73B2FBF3F3834204D20BF1010B5B
:102F90004FF0010811E0FA78DFF84C3703FB02111B
:102FA0004FF4FA72B1FBF2F1814206D22846FEF7E5
:102FB000BDF910B9F878401CF870606B60B17068AA
:102FC000296AB4F900200623401A12FB03F3984241
:102FD00024BF284600F090FB287D03280BF1010157
:102FE00004D170682A6A801A292805E0092805D1C9
:102FF00070682A6A801AF12828BF8B465FFA8BF026
:10300000B0B1276D284600F077FAB9F1000F3069AA
:103010003FF4A5AE854207D10AF1280340F26D5274
:103020000AF5317100F068F8E868C9F80C00A2E60A
:10303000A94699F81C0099F81D10ED68401C89F804
:103040001C00C0B2884213D3002089F81C003070E5
:10305000D9F88C204AB1D9F8100049469047317808
:1030600000297FF4A5AE002802D14846FDF7D3FD24
:10307000A4E675694FF000090FE0A84207D00AF1F5
:10308000280340F2B3520AF55D7100F035F8E868A4
:1030900070612846ED68FFF7A7FA3DB3287D0A283E
:1030A00007D00AF1280340F2A1520AF5477100F057
:1030B00023F87068296A401AF12814D3284600F0D2
:1030C0001BFA7069B9F1000FD7D0854207D10AF118
:1030D000280340F2AF520AF5537100F00DF8E8688A
:1030E000C9F80C00D5E7A946ED68D6E7BDE8F78F2B
:1030F00001B400201C0000205046FEF7A9BD70B5A9
:10310000DFF8E8556878401C68702C6920E0A077EB
:10311000608BC10706D500F023F8608B4FF6FC7179
:1031200008406083608B010706D54FF6F7721040A8
:1031300060832046FFF742FBE668A06F38B10021AC
:103140002970204600F014F828780028DDD1344694
:103150002CB16878A17F8142D9D1E468F8E770BDCD
:1031600040F0020060832046FDF755BDF4B2002018
:103170002DE9F04104000AD100F091F940F2096212
:1031800000F56771FEF764FD6FF00F002FE0A76F89
:10319000D4F884507E7B0020002DA06703463A4679
:1031A000214602D02069A84701E000F063F8010041
:1031B0006FF00C0812D1B00618D5208DB0F5066F4F
:1031C0001CBF401C2085D4F884507DB120690023A9
:1031D00000222146A847404508D101E0404501D1E1
:1031E000404604E0A7676FF0040000E00020BDE85F
:1031F000F08110B5002803E0046800F003F8200017
:10320000FAD110BD10B5040009D0606808B1FEF70E
:1032100094FF2146BDE810400320FEF78FBD10BD8E
:1032200048B9DFF8BC040FF2E44100F128034FF481
:10323000CE62FEF70DBD4175704738B5050009D166
:10324000DFF89C040FF2E04100F1280340F28262B3
:10325000FEF7FEFC0320FEF747FD040001D100202D
:1032600032BD1022294600F03BFB6068FEF7C7FF25
:10327000204632BD10B50800144607D122480FF28F
:10328000C44100F128034FF4D3620EE03CB1218920
:10329000FFF7D4FC2046FEF750FF002010BD002BA6
:1032A000FBD1BDE81040FFF705BBFEF7D1FC6FF086
:1032B0000F0010BDB0B50446082818BF092808D073
:1032C00011480FF29C4100F1280340F2DD62FEF745
:1032D000BFFCDFF8183418695F680021002209E09C
:1032E000057DA54205D1056A7D1B8D4224BF294677
:1032F0000246C0680028F3D12AB1BDE8B0400021E1
:103300001046FFF7FDBAB0BDACC30008F8B50646DD
:1033100000F085F80400DFF8D45358D1286900285C
:103320000AE0418BC4680A0705D54FF6F7731940C8
:103330004183FFF743FA2000F3D168696C680022EB
:10334000002106E0036AE31A934224BF1A460146AD
:10335000C0680028F6D111B10846FFF74BFB00F01A
:103360005EF8040033D10920FFF7A4FF00F057F8FE
:1033700004002CD10820FFF79DFF00F050F8040056
:1033800025D1802EA8BF7F2001DA30001CD0421E3C
:103390002869D2B20023002110E0447D944207DB6B
:1033A0000BD16F68D0F820C0A7EB0C079F4204D365
:1033B0006968036ACB1A01462246C0680028ECD12E
:1033C00011B10846FFF716FB00F029F8044624B3B4
:1033D0009C21204604F0B2F904F1480066754FF4D0
:1033E000866181834FF40662628522854FF40673FD
:1033F000FF22E27263860622A4F84020E2870123BE
:103400004FF0FF32228603806A6822626B78B84AE6
:10341000A3774180C264B749C1632046F2BD012051
:10342000FEF762BC00E0000040206FE700B10161E0
:10343000704738B50C4668B100F1140528780128AA
:1034400007D100F02CF840F2DF7200F57171FEF741
:10345000FFFB2C6731BD38B504000D460CD0207D34
:10346000012807D100F01BF840F2F37200F57B71E0
:10347000FEF7EEFBC4F8805031BD38B50C4668B19C
:1034800000F114052878012807D100F008F840F66B
:103490000D0200F21441FEF7DBFBEC6731BD9048F2
:1034A00000F12803704718B1027D012A08BF81612D
:1034B000704770B504000D461646894809D1BDE82D
:1034C000704000F1280340F63D020FF2A421FEF700
:1034D000BFBB217D012907D100F1280340F63E0240
:1034E0000FF2A421FEF7B4FBC4F88C50667770BDD0
:1034F00000000000A8DB000838B504000BD101B0C3
:10350000BDE8304076480FF2A02100F1280340F6D4
:103510005102FEF79DBB207D00281CBF0A28012810
:1035200019D004F16805286918B1FEF706FE0020DD
:103530002861E86810B1204600F0DEF84FF0FF3057
:1035400020866868FFF755FEA868FFF752FE002046
:103550006860A860288031BD70B50C000546604EDB
:1035600007D106F1280340F683020FF2582100F03C
:103570004AF83DB906F1280340F684020FF26021B3
:1035800000F041F82868A04203D1C068286006E036
:10359000084620B1C168A142FAD1E168C1600020AB
:1035A000E0602046FFF7A8FF207D0A2809D0012807
:1035B00025D0608BC10704D5FFF7D2FD207D0128FF
:1035C0001DD0D4F86C0030B106F1280340F6930208
:1035D0008BA100F018F8D4F8700030B106F1280380
:1035E00040F694028CA100F00EF8D4F8740030B1CB
:1035F00006F1280340F696028EA100F004F80020A0
:103600002075E08270BD3046FEF722BB80B540B920
:10361000DFF8CC008DA100F1280340F6AF02FEF7E1
:1036200017FB324A906951680818906102BD00008A
:10363000B92A000838B505460C463AB9FFF72FFFFE
:1036400040F6C50200F23C41FEF702FB002C1CBF15
:10365000A08C002807D02828CCBF2838002080B2B2
:10366000854288BF0546284632BD70B505000C4628
:1036700009D1FFF714FF4FF4106200F26441FEF726
:10368000E7FA00E0344644B120682968E6688842D9
:1036900004BF2046FFF7AEF9F4E770BD70B5040033
:1036A0000D461CBF2068002818D0104E31692046F6
:1036B000FFF7DBFFB1682046FFF7D7FF002D1CBFE7
:1036C000286800280AD0F06806E001682268914264
:1036D00004BF2B680360C0680028F6D170BD0000ED
:1036E000ACC30008B84C0A00F82401001C000020FC
:1036F00000DD6D007532000810B50446606F18B12A
:10370000FFF777FD0020606710BD00007463705FF5
:103710007365747072696F3A20696E76616C696462
:1037200020706362000000007463705F7365675F00
:10373000636F70793A20696E76616C696420736595
:10374000670000007463705F726563765F6E756C0E
:103750006C3A20696E76616C696420706362000067
:10376000696E76616C696420737461746500000031
:103770007463705F706F6C6C3A20696E76616C690F
:103780006420706362000000696E76616C69642079
:10379000736F636B657420737461746520666F72F8
:1037A00020706F6C6C0000007463705F7063625F08
:1037B00070757267653A20696E76616C6964207015
:1037C000636200007463705F7063625F72656D6F47
:1037D00076653A20696E76616C6964207063620078
:1037E0007463705F7063625F72656D6F76653A20B7
:1037F000696E76616C6964207063626C69737400D1
:10380000756E73656E74207365676D656E74732075
:103810006C65616B696E6700756E61636B656420D2
:103820007365676D656E7473206C65616B696E6737
:10383000000000006F6F736571207365676D656EC2
:103840007473206C65616B696E6700007463705FF0
:103850006E6578745F6973733A20696E76616C691E
:10386000642070636200000001020304050607077C
:10387000070707070700000003060C1830607800F0
:103880000146000A40EA012080B270470146080262
:1038900000F47F000A0A40EA016002F47F4210430C
:1038A00040EA1160704730B5016884684218416889
:1038B00002EB5103C90703D54C4401E0491C08D170
:1038C0009A4218BF12F9011B01D10C3030BD12F819
:1038D000015B002904F8015BF0D4491EF7D5EFE73E
:1038E0004AB1000011F8013B521E00F8013B1CBF19
:1038F00011F8013BF8E7704780B503F0FFFDC0F316
:103900000D00DFF8D011A0F58040088001BD2DE941
:10391000F14F82B00E4640B9DFF8BC310FF2C4114E
:10392000DFF8B801CF22FEF793F946B9DFF8AC0112
:103930000FF2C81100F14C03D022FEF789F902986A
:1039400041890829C0F2A8804468DFF89471396879
:103950007869DFF8888100F0C3FC81462088FFF792
:103960008FFF82466088FFF78BFFDFF868114C6895
:1039700000904FF0000B00250FE0002C1CBF2068CA
:1039800000282CD0796911F1010F1FBFB2681040D7
:103990001140884223D0A346E468002C47D0608AB7
:1039A00000998842F7D13EB908F14C03882208F10A
:1039B0008C014046FEF74CF9207A30B1796891F8D5
:1039C0003020521CD2B29042E5D1B9F1000FD4D1CF
:1039D000002C1FBF2068002879698842DBD1207C39
:1039E00041070FD46DB1B9F1000F0BD0786910F118
:1039F000010F07D170682968814203D02268824292
:103A000000D12546A08A5045C5D1606800281CBF5A
:103A100039698842BFD1BBF1000F0ED0E168DFF8F1
:103A2000B400CBF80C104168E160446005E02C0064
:103A300003D17068796988422DD102980821FEF778
:103A40004BFB58B9A4B1A5692DB3CDF800A0029ADB
:103A5000E06907F110032146A84721E0404600F144
:103A60004C034FF4B8720FF2B001FEF7F1F812E018
:103A7000B9F1000F0FD1387D00F0F000E0280AD036
:103A8000B7F90C100298083109B2FEF754FB0298FE
:103A9000032102F010FB0298BDE8FE4FFEF74DBB7C
:103AA000BDE8F78F002800D1704730B50268002AC2
:103AB00018BF00290DD00A685AB1064B5A6806E0B3
:103AC00013680468A34204BF0D681560D268002A19
:103AD000F6D130BD3800002010D10008C4D0000855
:103AE0007CB300207564705F696E7075743A2069EC
:103AF0006E76616C69642070627566007564705FD3
:103B0000696E7075743A20696E76616C6964206EB6
:103B10006574696600000000706275665F72656DAD
:103B20006F76655F686561646572206661696C6562
:103B3000640A000038B5044618204443DFF80857EB
:103B4000285918B1FEF7F9FA002028512A19002146
:103B5000117531BD10B5002400F0D6F862430A4457
:103B6000107DF8B1508A401C508280B2B0F5967F2B
:103B700005DA107D012806D1518A042903DD20468B
:103B8000FFF7D8FF0EE0032808BF042002D0042866
:103B900002D10220107505E0012803D19068111DA3
:103BA00000F050FB641C0A2CD6DB10BD2DE9F24F4F
:103BB00084B000240A2603900292ADF80440B34674
:103BC000B246B0460025DFF8849600941821DFF84D
:103BD0007806694347180FFA8AF23C7D0A2A04BF27
:103BE000002CAA4637D0B4B3012C08D007DC09F169
:103BF00068034FF4927209F1280100F00FFB03985B
:103C000040B101687A68914204D1029880B1B968E4
:103C100088420DD0012C15D138680028788A09D047
:103C2000BDF80410884216D3A846ADF8040012E08F
:103C300028B266E0BDF8021088420CD32E46ADF8DB
:103C4000020008E007DD788ABDF80010884224BF32
:103C5000AB46ADF800006D1C0A2DB7DB9DF81000D7
:103C6000039C029D810705D40FFA8AF10A2904D129
:103C7000C00705D44FF0FF3043E00FFA8AFA2ADB81
:103C80000FFA8BF00A280FDA824600F03DF812FB9B
:103C90000AF2885888B109F1680340F26D120FF2F8
:103CA000BC5100F0BBFA08E036B20A2EB2BFB246F1
:103CB0000FFA88FABAF10A0FDCDA5046FFF73AFF3A
:103CC000BAF10A0F07DB09F1680340F283120FF221
:103CD000A45100F0A3FA00F017F802FB0AF28E18C4
:103CE000307D38B109F1680340F2851209F1B00165
:103CF00000F094FA0CB12068706000217182B56008
:103D0000504605B0BDE8F08F1822DFF83C1570472B
:103D100038B5044600251822DFF82C156A431144F3
:103D2000087D28B18868A04204BF2846FFF702FF3B
:103D30006D1C0A2DEFDB31BD2DE9F84380460C00E8
:103D400086B0DFF8080508D100F1680340F28A2246
:103D50000FF24451FDF77CFF7CE0D8F804703988FD
:103D6000B1F5807F04BF3979062970D179790429AA
:103D700004BF798808296AD107F10E0104AA0B68EB
:103D8000136007F1180105AA0B681360616821B17F
:103D90008B4202D10125A94602E000254FF002091D
:103DA00094F82C10062907D000F1680340F2A912FC
:103DB00000F1DC01FDF74CFF049898B3214600F0B8
:103DC0008FFA78BB049800F0F000E0282AD0224651
:103DD000494604A8FFF7EAFE002823D41821DFF89B
:103DE00068244843161802203075B460062207F193
:103DF000080106F10C00FFF773FD00207082D6F871
:103E00000090B9F1000F0DD030604FF400610091C7
:103E100007F1080304F12602494600F058F8484625
:103E2000FEF78BF9F888B0F5807F10D17DB10220C4
:103E300004A9231D0390029107F108020093019247
:103E400004F1260304F12601204600F083F94046E0
:103E5000FEF773F907B0BDE8F0837CB504460D4664
:103E60001820DFF8E41342438E18327D022A09DA63
:103E7000DFF8D80300F1680340F2EF2200F59271F9
:103E8000FDF7E6FE307D022816D1708A40F21D1142
:103E9000884205DB311D204600F0D4F960B909E005
:103EA000B0F5877F08DB06F10C02311D204600F0DB
:103EB000B8F908B9032030754FF40061009106F19C
:103EC0000C0304F1260200F001F876BD29462046D5
:103ED00003F086BC2DE9FF410400174688463E46A4
:103EE000DFF8685308D105F1680340F21E320FF283
:103EF000A8312846FDF7ACFEB8F1000F08D105F156
:103F0000680340F21F320FF2A0312846FDF7A0FEF1
:103F100047B905F168034FF448720FF26C31284637
:103F2000FDF796FE3868214600F0DAF958B1C84B23
:103F30004FF40060009004F126024146FFF7C7FFEE
:103F400004B0BDE8F081386800F0F001E02915D137
:103F500001208DF8040000215E228DF805108DF8F7
:103F6000062001AB787800F07F008DF80700B87864
:103F70008DF80800F8788DF80900D9E7A168636822
:103F800001EA000219408A421EBF80B24FF6A961C1
:103F9000884203D0E068E8B104F10C06AD4BDFF8CD
:103FA000A8C21A781827104678430CEB0001097D47
:103FB000022912DB0CF108010958A14201BF356842
:103FC0000CF104010858854207D141462046FFF70D
:103FD00044FFB5E76FF00300B2E700222046314608
:103FE00007FB02F40CEB0406367D022E0ADB0CF113
:103FF00008052E59864201BF0D680CF1040634599C
:10400000A54203D0521C0A2AEADB03E01A7041469B
:10401000D2B2DCE7424600F001F891E72DE9F84F13
:1040200082460D461446286851464FF0FF3900F08D
:1040300057F9CB46002738B9286800F0F001E0298D
:1040400018BF002D00D010B96FF00F007CE0524671
:1040500001212846FFF7AAFD060048BF40B273D4ED
:104060007F2EDFF8E88106D308F1680340F2C13201
:1040700090A100F06BF8F6B2009632461821724813
:104080004A438618307D18B901273775C6F808A04D
:10409000307D012808D007DC08F1680340F2CF32F8
:1040A00008F5AA7100F052F807B974B929465046CC
:1040B00000F0C8F8002C834645D006D108F168030B
:1040C00040F2E13278A100F041F8307D01280FDDA7
:1040D000009860494FF400620092087006F10C03EA
:1040E0000AF126022146504603F07AFB83462AE075
:1040F00029D1254673A700E02D68FDB1688929897B
:10410000884208D1286830B108F1680340F2F132E2
:10411000394600F01BF8287B4106EDD522464FF4C6
:1041200020710E20FEF77CF904465CB1306808B1BE
:10413000FEF703F834604FF0000B04E02046FEF772
:104140005EF8F2E7CB465846BDE8F28F4046FDF7F1
:104150007FBD00002DE9FC4704000E4692469846BC
:10416000DFF8E89040F0078009F1680340F2574219
:1041700049A100F053F84FF420721C210E20FDF7E6
:1041800042FE050008BF4FF0FF3045D068891C286B
:1041900007DA09F1680340F2634209F5BE7100F0E5
:1041A0003DF80D986F68FFF76BFBF88094F82C00D2
:1041B000062807D009F1680340F26A4209F5D87170
:1041C00000F02CF80622414607F10800FFF788FBB3
:1041D0000B99062207F11200FFF782FB0A9802688A
:1041E00007F10E0153460A6007F118010C980268A6
:1041F0000A6008204FF480723A8078800621397175
:104200000420787140F6060100913246FFF75EFE09
:104210002846FDF792FF0020BDE8F6874846FDF7E7
:1042200017BD38B584B0012303930291051D0A4CD4
:104230000194009500F1260300F12601FFF78AFFA3
:1042400005B030BD024AECE708AD002038CD0008CB
:104250004C780008FEB30020A0DB00086172705F9C
:104260007461626C655B695D2E71203D3D204E5529
:104270004C4C000069203C204152505F5441424C5C
:10428000455F53495A45000069706164647220219A
:104290003D204E554C4C00006E6574696620213DF2
:1042A000204E554C4C0000007120213D204E554CB5
:1042B0004C00000074797065206F766572666C6FD3
:1042C000770000006E6F207061636B6574207175FC
:1042D0006575657320616C6C6F7765642100000003
:1042E000C24318BF002810D091F82D2093070ED597
:1042F0004A6890420BD0896801EA00030A40934261
:1043000002BFC9430840884201D101207047002004
:1043100070472E0038B5DFF82C074468002503E00D
:10432000401EE07725460C464CB1E07F216800280E
:10433000F6D120460C46294600F002F8F4E731BDDC
:104340002DE9F84F07460D460026BD42DFF8F886F6
:1043500006D108F12803AB220FF2F46100F05EF8F9
:10436000002D1CBF2868B84206D008F12803AD22F2
:104370000FF2E86100F052F87C680FF2F4696168AE
:104380008888D0B9086878601422606807F108014D
:10439000FFF7A6FA0121204601F090FE2046FDF726
:1043A00025FF0646B6F5803F04DB08F12803BC2252
:1043B00000F033F82046FDF7C0FE7C6815E0606829
:1043C000A24604685046FDF711FF83460BEB06003A
:1043D000B0F5803F04DB08F12803CC2200F01DF883
:1043E00050465E44FDF7A9FEB6B2002CE7D129463F
:1043F000384600F04AF8DFF84C462088B04206DA2A
:1044000008F12803D22208F1700100F007F8208893
:10441000801B20803046BDE8F28F49464046FDF7BC
:1044200017BC2DE9F041044688460023DFF81466E6
:1044300071680020002786468446002917E0E2685C
:104440004D69954202BF22698D69954202BF8A89F2
:10445000A588AA4207D07F1C18B1C27FCD7FAA428F
:1044600001D30846F4460A6802B18E461100E6D12F
:1044700020B11D466146FFF763FF4319434501DA4A
:10448000012FD5DC1846BDE8F08138B50546DFF8C8
:10449000B4050C464168A94202D12A6842600CE08A
:1044A0004CB9DFF8A4050FF2E85100F1280340F2FF
:1044B0004512FDF7CDFB2A6822602946BDE834404D
:1044C0000420FDF73BBC00002DE9F04F804685B08D
:1044D000D8F804502878800000F03C00142852D10D
:1044E000E888FFF7CDF9C4006888FFF7C9F9297893
:1044F000890001F03C01884245DBA0EB010A4046FF
:10450000FDF774FEDFF83C758146388848440A2878
:1045100009DD49462846FFF784FF002833D0388854
:1045200048440A282FDC7E680CE0E8687169814203
:1045300002BF2869B169814202BFB089A988884257
:1045400022D03668002EF0D10420FDF7CDFB060006
:104550000CD149462846FFF764FF484504DB042098
:10456000FDF7C2FB060001D100260BE020213046FA
:1045700003F0E4F80F20F0771422796831607E6050
:1045800000F053F96EB946E1E888FFF779F9C00405
:1045900007D1F089FFF774F9C00402D0142200F0AB
:1045A00044F9ED882D066D0FA24405F00105ADF824
:1045B00004A095F00105DFF890A409D0BDF804002F
:1045C000A4B2A04215DB4FF6EC71884280F20A815A
:1045D0000022049201210391D8F80420009250880F
:1045E000FFF74EF9044600980178890001F03C0B72
:1045F0005C45C0F2F780C088FFF742F9D8F8041094
:1046000000910B4600211960C200009B9A80A418FB
:104610000099A4EB0B04CC8090B2A4B284423DD3A9
:104620007068049CDDF80CB0029003460EE093B273
:1046300000F0D880B0F806C063452FD3002C1EBF11
:10464000E3888B424FF0000B036804465BB3586865
:1046500081881FFA82FC8C45E9D200990B60CCB1AD
:1046600000998A88E1888A4221BF80880099CA8897
:10467000904213D3C4F800800099E0888A88904261
:1046800018BF4FF0000B45BBB07FC10725D44FF0DA
:10469000000B53E000998088CA889042C0F0A28045
:1046A000C6F80480EFE764B1E08892B28242E1D2BA
:1046B0000AF128034FF4DB720FF2F03100F0B2F888
:1046C000D8E702980028EBD00AF1280340F2BF1285
:1046D0000AF1940100F0A6F8E2E7BBF1000F2AD03E
:1046E000716831B34A68908818BB009A1346144623
:1046F000186806E04468D088A288904219D12068E2
:1047000022460028F6D14868A04207D10AF12803C2
:1047100040F2E1120FF2B43100F084F8206850B199
:104720000AF1280340F2E3120AF1CC0100F07AF812
:1047300001E04FF0000B1BF1010F53D038884844C3
:10474000388035B1B17FBDF80400B08341F001017C
:10475000B177BBF1010F61D1B08B00F11408706823
:1047600041680C680D46142206F108012846FFF73F
:10477000B7F81FFA88F0FFF783F868800020E88018
:10478000688175680BE0D4F8048014212046FDF799
:10479000A3FC21462846FDF743FDD8F80040002C35
:1047A000F1D179688E4202D1002105E0014600294D
:1047B0001CBF0868B042F9D13046FFF766FE2846B4
:1047C000FDF714FD04463888A04206DA0AF12803F2
:1047D00040F29B22C1A100F025F83888041B3C80E0
:1047E00028461CE03EB90AF128034FF42A7200BFA4
:1047F000C1A100F017F8706868B97868864206D0E1
:104800000AF1280340F2AB22BEA100F00BF8002110
:104810003046FFF73AFE4046FDF78FFC002005B01A
:10482000BDE8F08F5046FDF713BA294606F108009F
:10483000FFF756B810B5040007D18348B9A100F1BD
:1048400028034FF43172FDF703FA2146BDE810400A
:104850000520FDF773BA000010B5040007D17A48AF
:10486000B3A100F1280340F2CE22FDF7F1F960690F
:1048700008B1FDF762FC2046BDE81040DAE7000011
:104880002DE9F24F8AB00646888C1438811000EB6F
:104890005170C010079000277068069014250178A9
:1048A000890001F03C01142914466FF005090DD16F
:1048B0007089DFF894B1142880F20A800BF1280384
:1048C0004FF43F729DA15846FDF7C2F94846B1E04A
:1048D0000698C088FEF7D4FFC0F30C02089005923A
:1048E0003089079A0994A0F1140189B20391D1008B
:1048F000ADF80A1033E00A98818C03987D191439B9
:10490000ADB28142B4BF002101210598C0F30C0073
:1049100011B108998A0401D540F40050FEF7B0FFA8
:104920000499C880BDF80800143080B2FEF7A8FFD3
:104930000499488000200499488141460A98099AC0
:104940004469A0474046FDF7F8FB0399BDF808000D
:10495000091A89B20391079805994118059103989E
:10496000002867D0BDF80A108842B4BFADF808002F
:10497000ADF808104FF4207214210E20FDF743FA11
:10498000040055D06089142880F208800BF12803B8
:1049900040F2253270A15846FDF75AF90699606831
:1049A0001422FEF79DFF60680490A046BDF8080041
:1049B00004461FE0B8B201904B4670684019009061
:1049C0004122B9B20020FDF7ECFA5FEA000A34D0C8
:1049D0003046FDF714FC1D48C9F81000C9F81460F2
:1049E00051464046FDF71CFCE41BA4B2002C02D04B
:1049F00036680025002C3FF47EAF7089471B07DA2C
:104A00000BF1280340F22D325BA15846FDF720F947
:104A1000B8B28442B8BF2746B8B20028E8D0052013
:104A2000FDF762F95FEA0009C4D14046FDF785FB56
:104A30004FF0FF300BB0BDE8F08F4846FFF7FAFEAD
:104A4000F3E70000B8B3002064D400085948000818
:104A50007072657620213D206970720070726576F3
:104A60002D3E6E657874203D3D2069707200000017
:104A700070627566735F6672656564202B20636C77
:104A8000656E203C3D20307866666666000000005A
:104A900073616E69747920636865636B206C696EFD
:104AA0006B6564206C697374000000006368656363
:104AB0006B20667261676D656E747320646F6E271C
:104AC00074206F7665726C617000000073616E69AE
:104AD000747920636865636B0000000069705F7221
:104AE000656173735F70627566636F756E74203E87
:104AF0003D20636C656E000069707220213D204E80
:104B0000554C4C006E6F74206669727374616C74DE
:104B1000686F756768206A75737420656E71756556
:104B2000756564007020213D204E554C4C000000FE
:104B300070637220213D204E554C4C006970345FEB
:104B40006672616728293A207062756620746F6FFB
:104B50002073686F7274000074686973206E6565F5
:104B600064732061207062756620696E206F6E65C7
:104B70002070696563652100702D3E6C656E203E76
:104B80003D20706F666600002DE9F84F050084B087
:104B9000DFF8D4BA06D10BF1280383220FF6940173
:104BA00000F0AEFC6C68DFF8C47A3C6268891428B7
:104BB0003FDBDFF8BC8AD8F80010D8F81400FFF704
:104BC0008FFB002840F02D8498F8140000F0F000CE
:104BD000E02800F02684A089FEF752FE000B810039
:104BE0001429A4BF2889884223DBA1F114060020E0
:104BF000BE8278626A898A4204DBFE822846FDF71B
:104C00006BFA35E0286830B90BF12803C2220FF6A1
:104C10003C0100F075FC14212846FDF75DFA698916
:104C2000F9822846761AFDF757FA28684189B6B204
:104C3000B142C0F2F68342687A623146FDF74CFA1F
:104C4000298968898E1B2E8130B10BF12803DF2260
:104C50000FF6080100F054FC296828890A8990425F
:104C600006D00BF12803E0220FF2FC7100F048FCA3
:104C70002088FEF705FE20806088FEF701FE608038
:104C80006068FEF703FE6060B8623C6AA068FEF7E9
:104C9000FDFDA060F862D7F82090B9F80E00FEF78D
:104CA000EFFDA9F80E00B9F80C00FEF7E9FD00F0E1
:104CB0003F0A87F800A01AF0030F2889B88305D0AF
:104CC000411CB98389B28142C0F0AB83DFF8A409EB
:104CD0000468002601E02646E468002C00F07E808F
:104CE000207D30B90BF12803FB220BF1680100F0A5
:104CF00007FC207D0A2806D10BF12803FC220BF1CA
:104D0000900100F0FDFB207D012806D10BF1280366
:104D1000FD220BF1BC0100F0F3FB207A10B100F092
:104D2000E7FBD8D1208BB9F80010884202BFE08A97
:104D3000B9F802108842CED16068D8F810108842C5
:104D400002BF2068D8F814108842C4D1E068A0429D
:104D500007D10BF1280340F20D120BF1E40100F032
:104D6000CFFB36B1E068DFF80C19F0600A68E2604A
:104D70000C60E168A14207D10BF1280340F2151243
:104D80000BF5887100F0BCFB002078602989B9819F
:104D9000BD605FEA0A71C7F8109038637870788355
:104DA00003D5687B40F00100687304F14405686B2B
:104DB00000280AD02046FEF7DBF910F10D0F06D0CF
:104DC000686B00281CBFB88B002800F0FF80608D46
:104DD000002802D12046FCF775FA00E3DFF89808B6
:104DE000046800E0E468002C4DD0207D0A2807D03C
:104DF0000BF1280340F21F120BF59E7100F080FBAF
:104E0000207A10B100F074FBECD1B9F80030208B9F
:104E1000984202BFB9F80260E08AB042E2D161680C
:104E2000D8F81000814202BF2168D8F814008142EE
:104E3000D8D15FEA4A71204675D4B98B5FEA8A728D
:104E400013D5BC6A426AB4EB020C15D4028DACEBEC
:104E50000202002A10DC0293621808F1100300938A
:104E6000019608F11403F96AD9E25FEACA7203D520
:104E7000DFF808381C680462002954D0418B41F0E7
:104E8000020141839FE0DFF8F8371868002201E053
:104E90000246C068002800F0AC82017A39B1D8F827
:104EA000044094F83060761CF6B2B142F0D1B9F803
:104EB0000260C18AB142EBD10168D8F81440A14226
:104EC00018BF002818BF0029E2D1044622B1E068CB
:104ED000D0601968E1601C605FEA4A7023D4D7F89B
:104EE00028B05FEACA600ED5B9F80010B88B0291FD
:104EF00008F1100200920BEB0002F96A019608F12A
:104F0000140320468BE25FEA8A700CD5607DFEF7C1
:104F1000FDF9060008D1A369002B04D020694FF0E9
:104F2000FF32002198477CE2D8F814003060D8F8AE
:104F30001010716006F16008E08AF0820320B9F871
:104F40000010307531830BF101007062F062304661
:104F5000FEF75CFBB06530657064F065ABF1010095
:104F6000706520693061C8F81C40607A00F00C0060
:104F70007072207A3072DFF8FC060168F16006601A
:104F800002F01EFBDFF8FC1601200870304600F02E
:104F90002DFF386AC089A8F80000A8F80200301D6B
:104FA000FCF7D8FC0146708E321DFEF743FB70867D
:104FB00012213046FBF796FD20B100213046FDF767
:104FC0009FFC2EE23046FBF726FE2AE25FEA4A709B
:104FD0007C63DFF8A06625D5207D022804D1F86A1D
:104FE000E968884216D10CE0626AB96A914212D12E
:104FF00038B90BF128034FF44E720FF28C4100F0D8
:105000007FFA787840F0080078704FF6FE70618B78
:105010000140618371E1891AFCD4208D091A0029AD
:10502000F8DC5BE15FEA8A7004D5207D022818BFB6
:105030000328F6D1A07EC10603D4DFF8400602683B
:10504000226204F19A00002141700170204600F0B4
:10505000CDFEBA6AB88B97F800E03B6AF96A10187F
:1050600003900EF0100094F814A0AAF1020ABAF10D
:10507000070F41F21C1919D8DFE81AF0C7007400B5
:105080006E004B0043006E001900080000F021FA8A
:105090003878C1060AD5F86AE968884204BFA86A68
:1050A000002803D1787840F01000787025E100F0F6
:1050B00010FA3878C106F9D5F86AE968884204BF61
:1050C000A86A0028F2D12046FEF716FA3068A042FE
:1050D00030D000E0084620B1C168A142FAD1E168B1
:1050E000C1600020DFF89C25E060012111700A20DA
:1050F0002075DFF884050168E160046002F060FA61
:10510000FBE000F0E6F978788106F9D500F0DCF9EB
:10511000D9E700F0DEF97A783878F96A930600F07A
:1051200010000FD550B1EA68914204BFA86A002868
:1051300004D1EBE73068C1683160D2E700F0C4F910
:10514000082152E000280CD0EA68914204BFA86A06
:10515000002806D1062148E000F0BBF978788106E6
:1051600040D4CAE0002845D02868081A401E3ED422
:10517000E868081A00283ADC04212175A86B002889
:1051800016D0806938B90BF128034FF46A720FF218
:10519000183100F0B5F9A86B8369002B08D020699D
:1051A00000222146984720B110F10D0F00F0178121
:1051B000D9E000F08EF9788B08B1401E7883608EBC
:1051C00042004A458CBF13464B468100994238BF86
:1051D000800003D34A458CBF40004846A8807878B9
:1051E000810603D500F070F90721217585E000F0F4
:1051F00072F982E05FEA8E70FBD5616A491E8A42CD
:105200007BD12046FBF7F1FE77E00EF0120EBEF1E7
:10521000120F02BFD5F800C00CF1010C614560D13E
:10522000501C6062E0622960521ED889A883E8831E
:105230002A6104202075201DFCF78CFB0146608E3E
:10524000221DFEF7F7F9420060864A458CBF1346DF
:105250004B468100994238BF800003D34A458CBF3A
:1052600040004846A880688C38B90BF128034FF4F9
:105270005B720FF6244100F043F9688CD5F82C805E
:10528000411EB8F1000F698410D1D5F82880B8F11B
:10529000000F07D10BF128034FF45D720FF6104198
:1052A00000F02EF9D8F80000A86202E0D8F800104B
:1052B000E9624046FDF7A6FFE86A00280EBF4FF0FE
:1052C000FF30002084F8420020866B6C33B12069E7
:1052D00000222146984710F10D0F1ED000F0F4F87F
:1052E0000BE050B100F0F7F894F84200062804DA19
:1052F000002121862046FBF762FE787801070DD554
:10530000EA6C1AB120696FF00D01904721463046D2
:10531000FEF722F92046FDF767F960E07A8B4AB183
:10532000EB6B2BB120692146984710F10D0F56D039
:1053300000207883204600F0E6F800284FD13E6B2D
:105340006FF00C084EB3686B38B10BF128034FF4C3
:10535000F3720FF6283100F0D3F8A07EC10606D50F
:105360003046FCF7EAFE2046FDF744FB37E0D5F86F
:1053700040C0BCF1000F05D0206900233246214611
:10538000E04705E00023324621460020FDF772FF8A
:10539000404524D008B1386B68637878810615D50C
:1053A000686B20B1417B41F0200141730EE0208DFC
:1053B000B0F5066F1CBF401C20852D6C35B12069EF
:1053C000002300222146A847404508D000207863EA
:1053D000204600F098F810B92046FBF71CFC00208E
:1053E00078633863B86810B3FCF7A7FE0020B86094
:1053F0001DE0B9F80C00FEF743FA400711D4B9F8E4
:105400000010029108F11002B9F80200B98B019066
:10541000009208F11403B86A4218F96A0020FBF7F9
:105420000EFF284605B0BDE8F04FFCF786BE05B07C
:10543000BDE8F08F7463705F696E7075743A2069AF
:105440006E76616C6964207062756600702D3E6EC8
:1054500065787420213D204E554C4C00702D3E6CDB
:10546000656E203D3D203000702D3E746F745F6C82
:10547000656E203D3D20702D3E6E6578742D3E7426
:105480006F745F6C656E00007463705F696E707539
:10549000743A207063622D3E737461746520213DFF
:1054A00020434C4F534544007063622D3E6C69733A
:1054B00074656E65722D3E61636365707420213D75
:1054C000204E554C4C000000608B40F00200608381
:1054D00070472046DCE01888029020465A880192E6
:1054E00008F11003009308F11403039AFBF7A7BE19
:1054F000D8F8041091F83020521CD2B29042704774
:105500005846FCF7A5BB10B5040008D1564800F179
:10551000280340F25A2200F5B671FCF799FB534A72
:105520005078C10612D5A07EC10606D4D4F89020CA
:105530001AB120696FF00E01904721464D48FEF7E1
:105540000BF82046FDF750F8012010BD002010BDDB
:1055500070B505000C4608D1434800F1280340F21D
:105560001F4200F5CA71FCF773FBE86800F08DF884
:10557000C00713D52046FDF73CFE002424E000F0D0
:1055800084F8C00706D50120FEF77AF9E9688A8910
:105590001043888120462468FDF734FEA4B1E068FA
:1055A00032494368896A2A8926898A18D31A9B1B3B
:1055B000E5D54368D21A002A06DD42686868511AA8
:1055C000298189B2FCF709FD2C6070BD2DE9F047F7
:1055D00080460C461D46DFF89090244F002C40D0AA
:1055E000E1684868FEF752F90646E06800F04DF8B9
:1055F00010F0030018BF01202189FA6A71184018C1
:10560000801A01282DDA264624687068FCF7EEFD22
:105610008246B8F86600504507DA09F1280340F2DF
:10562000574209F5DE7100F0CCFBB8F86600A0EB3C
:105630000A00A8F86600798B3089411879833046D2
:10564000FDF7E0FDB8F866000028C7D0002CC5D1F2
:105650003DB90FF6700109F1280340F2624200F0F3
:10566000B0FB2046BDE8F08744C80008C0B2002067
:105670007CB300202C0000203000002020000020FF
:10568000280000201C00002028698089FEF7F8B857
:105690002DE9F0470600DFF8D89707D109F1280374
:1056A00040F27B420FF63C0100F08BFB307D04287A
:1056B00007DA09F1280340F27C420FF6440100F0BA
:1056C00080FBDFF8B0572878C10606F144074FF693
:1056D000FF7840F10A81D7F810E0A86AD7F814C023
:1056E000BC8B2B6AE96ABEEB000A0CEB040209D4FE
:1056F00002D1BCEB010E05D48C450ED1B3F80EC01F
:1057000064450AD2DB89B6F862C01C46644538BFDE
:105710006446FC83BB833861796106F142033C68CF
:10572000081B002828DCA88B002801BF7869B7F87F
:105730001CC0604490421CD1B6F93000002818D437
:105740008C4216D15878411CCAB2904238BF597069
:105750005878042807DBB988728E521893B28B42AE
:1057600038BF4246BA80032802DB3046FBF777FC9D
:1057700098E00020587095E0401E00F19080F86895
:10578000081A002800F38B80728B540707D54FF658
:10579000FB70024072830020FA88BA80F8840022ED
:1057A0001A70B6F93E40B6F93C20B88804EBE20422
:1057B000A6F8404000243A685C7039608A1A317D4E
:1057C00004291ADBFC88F98CA04230D2738B1C05AB
:1057D0004CBF01230223748E9E461EFB04FE1FFA5B
:1057E00082FC1FFA8EFEF44524BF1A46624312184B
:1057F00093B2834219D31046F984B880BB6AF96A20
:105800000FF218723046FFF7E1FE0346FB623046A6
:10581000B96A0FF21072FFF7D9FEB862F86A002871
:105820000CBF4FF0FF30002011E04046E4E7521873
:1058300093B28B422CBF114641468AB28242DBD3DF
:10584000728E1218091A93B28342EED3D3E73086D0
:1058500000203077B86A08B90021B9843A8C698B86
:105860008A183A84728B11051CD5F96A49B980B13E
:10587000C1684868FEF70AF8B968081A002811DC00
:1058800007E0C9684868FEF701F8B968081A0028F7
:1058900008DC718B4FF2FF700140718302E03046EB
:1058A000FBF710FD706B00B3B26BE96A521A1CD59E
:1058B000DFF8C4251368B6F93C10181A00B2A0EB43
:1058C000E100411804B2002C48BF4042B1870904EE
:1058D000B6F93E208018A0EBA200F087C91401FAA7
:1058E00080F0A6F8400000217163A88BA96A002807
:1058F00000F04782327D072A80F24382726AA2EB6F
:10590000010ABAF1010343D4AAEB0000401C0028AD
:105910003EDCAC683CB909F1280340F294520FF226
:105920000C6100F04EFAC24507D309F1280340F29A
:1059300095520FF2086100F044FAA86801891FFA35
:105940008AFA514507DA09F1280340F297520FF21B
:10595000FC5100F036FAA889A0EB0A00A881A968DA
:105960000889A0EB0A0007E0AAEB01011FFA81FAFF
:10597000002120816181246861895145F4DB514611
:105980002046FCF7A9FB706AA8622969486005E017
:10599000891A03D5708B40F002007083716AAA6A7D
:1059A000531A00F1E981308D1B1A5B1C002B00F3A8
:1059B000E381914209F5F27A40F02A81FFF764FE13
:1059C00010F0030018BF012000F0EBF980B2328D17
:1059D00082422FD2FFF758FEC00708D500F0ECF93D
:1059E00000F03E00FDF74CFF2A6900F0DEF9308D33
:1059F000A88100F0E1F9800702D5A9894144A98175
:105A0000A989A868FCF7E9FAFFF73EFE10F0030049
:105A100018BF012000F0C5F9AA6A716A12FA80F075
:105A2000328D8A18904205D009F1280340F2CC52F9
:105A300000F0C6F9386B002860D0FFF725FEC007DC
:105A400007D5386B002859D001683963FDF7DAFBB8
:105A5000F7E73C6B1AE000F0B0F9C00712D500F090
:105A6000ABF980070ED40120FDF70AFF29698A8966
:105A700010438881FDF704FF10F0030018BF0120D8
:105A800000F08FF920462468FDF7BCFB002C34D0D1
:105A9000E1684B68A86AAA8BB4F808C08218D31AC8
:105AA000B3EB0C03D7D54B68D21A002A25DD4A6820
:105AB000101AA881FFF7E8FD800703D5A98988445B
:105AC000A5F80C80A989A868FCF787FAFFF7DCFD28
:105AD00010F0030018BF012000F063F9E26851687C
